{
    "result": {
        "hex": "010000000ccd9ba1b81bc7aca2e046e8c420e9c4fe12987a12a1b1177dd3665cedc5f0eb31010000008c493046022100be6db875492bcd435b1b5963a46be75a23331af506b5c6638bbe7d20138cd74b022100e9c027486c5881a22350d436dccbe70eafbd0d965065a67e0c091eb815c0a670014104ed03525b11f2353b894163ae8468c51e38167971009b7fae62c4945826f1a4f2f3cfa035ced66634dbdce7dee986d5f40107c463a4792efe661e77a1ff3815e4ffffffff92c14dba8842eae23aa13a6549dfcc7fbbd49d0d5484453ecf0b68e28aa1eba4000000008a47304402203076fd03e2c10ce11df069387a13ffc142d53c3451c329b8e07659c7664daadf02207598f9541b8e0ef705c6dca7b210c63a81bff724ec02af6a8bb872e96245aec1014104ed03525b11f2353b894163ae8468c51e38167971009b7fae62c4945826f1a4f2f3cfa035ced66634dbdce7dee986d5f40107c463a4792efe661e77a1ff3815e4ffffffff3fcfa083acbd923265130c8c5be3ada132c0dc25dd7464e4afb181de67992e9b000000008a47304402202081d7ceb8bba94b9085567dfd2c7654941fcac6923a8c269c684204530de64202207b1897aacb15949ae3e652205c57a9e2072386701a0fc20513577ebb23c02c17014104ed03525b11f2353b894163ae8468c51e38167971009b7fae62c4945826f1a4f2f3cfa035ced66634dbdce7dee986d5f40107c463a4792efe661e77a1ff3815e4ffffffff1a94f00c33a58f6e62b88dbd84072c0d524edc0ff8f76b01b4d32e8493c719ee000000008c493046022100efcc451dd35b2b02e2c6ab92eaad77df3575be9b95e9a1f8ab3a0207651f175f022100bbcb368357bcb97e299b8508f5937f518dfd3056da70d78337c988c86c5e2b28014104ed03525b11f2353b894163ae8468c51e38167971009b7fae62c4945826f1a4f2f3cfa035ced66634dbdce7dee986d5f40107c463a4792efe661e77a1ff3815e4ffffffff7a431ed56bf83ee9a4267f4e13f460f88e03f04b3d8791e7ba330fc48aa0c811000000008c4930460221009d59926c1fc03f607da4ce4b933c0be4e2b62f0ce4f382c3edbda5a50ec5c4860221008f387a6afeae3739ab8a8c71ab53c6c2988d309d6876f30e96e24b307d141906014104ed03525b11f2353b894163ae8468c51e38167971009b7fae62c4945826f1a4f2f3cfa035ced66634dbdce7dee986d5f40107c463a4792efe661e77a1ff3815e4ffffffff51326dcc4df454de8a17e7b39bc14f442646f7983344279aea9dc905e29bb3de000000008b48304502204f071efb9947ad1224bff8b8d79bd03a05426320cea9c79d15e96df18db6b9bb022100fd68844bef4972917fcd490833a23334a99656bd18ee4a0c5960074d2286e2cd014104ed03525b11f2353b894163ae8468c51e38167971009b7fae62c4945826f1a4f2f3cfa035ced66634dbdce7dee986d5f40107c463a4792efe661e77a1ff3815e4ffffffff2fb493635b96280a477364fd07ae45d99aad5fbef8155dff177638ed56fd0735000000008b483045022100d5f017891ea61772bc4810c1561593f865b2501e18620a869a094b01a03fbf42022033f70db7d15956820c7067a160c34860ae3cef5bc40b9e295317998987eac530014104ed03525b11f2353b894163ae8468c51e38167971009b7fae62c4945826f1a4f2f3cfa035ced66634dbdce7dee986d5f40107c463a4792efe661e77a1ff3815e4ffffffff10290bc658754c9d149cdf416907ef9f70b526b2374f1cac0fab56a7397ab20b000000008b48304502202251b873beeb80f8c479c418b7f38c2622e2e05bfa74c75079d51601f8689da6022100a6baf97aee2e9f21568049b91b6e56ce7dcabd2b54d584cbf4f4252b6e6d11d0014104ed03525b11f2353b894163ae8468c51e38167971009b7fae62c4945826f1a4f2f3cfa035ced66634dbdce7dee986d5f40107c463a4792efe661e77a1ff3815e4ffffffff7cc6c2b5d186235a1320e5e3b9e66c8cb9030c5f2dbe1800d46512735ac006a7000000008b4830450221009444a0b1b51a91af457af136e4374a952ab4b27263f47711e87ab44161daa5e30220368f9d37300ad5ff0952e501d2afed273eaf45fe741f4e66ddab062667e8bed9014104ed03525b11f2353b894163ae8468c51e38167971009b7fae62c4945826f1a4f2f3cfa035ced66634dbdce7dee986d5f40107c463a4792efe661e77a1ff3815e4ffffffff8977849df119434c49841f4b0db4875a35baeb1eb35baa43506d6006e2b815e6000000008b483045022038c8827b084259f88d1ec84932b74b12f876fbce38e5885c3e47295afc21d386022100d247afe9a9cfeb099e84e835ddeffe6c115bea6ace604e58f205962bda93fd2f014104ed03525b11f2353b894163ae8468c51e38167971009b7fae62c4945826f1a4f2f3cfa035ced66634dbdce7dee986d5f40107c463a4792efe661e77a1ff3815e4ffffffff1ee7be3727e776b20b7fb26bc4c8a1657334af06bd3b5b23bdb102c9f311d966000000008c493046022100d1c2a3bb2addc263dd182814abb297c3173425339b3412e8a557b83563e39d00022100b901e6d9e8e624ff75bad24db03b72ad38496f5d48c4ac9fb423d9f0ef4a0146014104ed03525b11f2353b894163ae8468c51e38167971009b7fae62c4945826f1a4f2f3cfa035ced66634dbdce7dee986d5f40107c463a4792efe661e77a1ff3815e4ffffffffc5ebbcf724b9b92da29132ff77f9743b964a476089ed79c2896c56be119f34ee000000008a47304402204e532f542c9cca197a3abd6516a5ca2c4a9e8982c782e7c100ad9e38446bff15022058f6372ed818b443dc60c8c814ad2ba8452239262f9eef893401b7e7ef28637a014104ed03525b11f2353b894163ae8468c51e38167971009b7fae62c4945826f1a4f2f3cfa035ced66634dbdce7dee986d5f40107c463a4792efe661e77a1ff3815e4ffffffff0200743ba40b0000001976a914d2b8371edcd7041e3c26b82c8c6ed51e6bb6177788acf07313d8050000001976a914d2d24b64687b50114908e8fd39a0c004ca333bb088ac00000000",
        "txid": "9ba197bb580288be6b6ca19772cc6347f4ab4bc3e1425de31598608e84d8ede0",
        "hash": "9ba197bb580288be6b6ca19772cc6347f4ab4bc3e1425de31598608e84d8ede0",
        "size": 2239,
        "vsize": 2239,
        "version": 1,
        "locktime": 0,
        "vin": [
            {
                "txid": "31ebf0c5ed5c66d37d17b1a1127a9812fec4e920c4e846e0a2acc71bb8a19bcd",
                "vout": 1,
                "scriptSig": {
                    "asm": "3046022100be6db875492bcd435b1b5963a46be75a23331af506b5c6638bbe7d20138cd74b022100e9c027486c5881a22350d436dccbe70eafbd0d965065a67e0c091eb815c0a670[ALL] 04ed03525b11f2353b894163ae8468c51e38167971009b7fae62c4945826f1a4f2f3cfa035ced66634dbdce7dee986d5f40107c463a4792efe661e77a1ff3815e4",
                    "hex": "493046022100be6db875492bcd435b1b5963a46be75a23331af506b5c6638bbe7d20138cd74b022100e9c027486c5881a22350d436dccbe70eafbd0d965065a67e0c091eb815c0a670014104ed03525b11f2353b894163ae8468c51e38167971009b7fae62c4945826f1a4f2f3cfa035ced66634dbdce7dee986d5f40107c463a4792efe661e77a1ff3815e4"
                },
                "sequence": 4294967295
            },
            {
                "txid": "a4eba18ae2680bcf3e4584540d9dd4bb7fccdf49653aa13ae2ea4288ba4dc192",
                "vout": 0,
                "scriptSig": {
                    "asm": "304402203076fd03e2c10ce11df069387a13ffc142d53c3451c329b8e07659c7664daadf02207598f9541b8e0ef705c6dca7b210c63a81bff724ec02af6a8bb872e96245aec1[ALL] 04ed03525b11f2353b894163ae8468c51e38167971009b7fae62c4945826f1a4f2f3cfa035ced66634dbdce7dee986d5f40107c463a4792efe661e77a1ff3815e4",
                    "hex": "47304402203076fd03e2c10ce11df069387a13ffc142d53c3451c329b8e07659c7664daadf02207598f9541b8e0ef705c6dca7b210c63a81bff724ec02af6a8bb872e96245aec1014104ed03525b11f2353b894163ae8468c51e38167971009b7fae62c4945826f1a4f2f3cfa035ced66634dbdce7dee986d5f40107c463a4792efe661e77a1ff3815e4"
                },
                "sequence": 4294967295
            },
            {
                "txid": "9b2e9967de81b1afe46474dd25dcc032a1ade35b8c0c13653292bdac83a0cf3f",
                "vout": 0,
                "scriptSig": {
                    "asm": "304402202081d7ceb8bba94b9085567dfd2c7654941fcac6923a8c269c684204530de64202207b1897aacb15949ae3e652205c57a9e2072386701a0fc20513577ebb23c02c17[ALL] 04ed03525b11f2353b894163ae8468c51e38167971009b7fae62c4945826f1a4f2f3cfa035ced66634dbdce7dee986d5f40107c463a4792efe661e77a1ff3815e4",
                    "hex": "47304402202081d7ceb8bba94b9085567dfd2c7654941fcac6923a8c269c684204530de64202207b1897aacb15949ae3e652205c57a9e2072386701a0fc20513577ebb23c02c17014104ed03525b11f2353b894163ae8468c51e38167971009b7fae62c4945826f1a4f2f3cfa035ced66634dbdce7dee986d5f40107c463a4792efe661e77a1ff3815e4"
                },
                "sequence": 4294967295
            },
            {
                "txid": "ee19c793842ed3b4016bf7f80fdc4e520d2c0784bd8db8626e8fa5330cf0941a",
                "vout": 0,
                "scriptSig": {
                    "asm": "3046022100efcc451dd35b2b02e2c6ab92eaad77df3575be9b95e9a1f8ab3a0207651f175f022100bbcb368357bcb97e299b8508f5937f518dfd3056da70d78337c988c86c5e2b28[ALL] 04ed03525b11f2353b894163ae8468c51e38167971009b7fae62c4945826f1a4f2f3cfa035ced66634dbdce7dee986d5f40107c463a4792efe661e77a1ff3815e4",
                    "hex": "493046022100efcc451dd35b2b02e2c6ab92eaad77df3575be9b95e9a1f8ab3a0207651f175f022100bbcb368357bcb97e299b8508f5937f518dfd3056da70d78337c988c86c5e2b28014104ed03525b11f2353b894163ae8468c51e38167971009b7fae62c4945826f1a4f2f3cfa035ced66634dbdce7dee986d5f40107c463a4792efe661e77a1ff3815e4"
                },
                "sequence": 4294967295
            },
            {
                "txid": "11c8a08ac40f33bae791873d4bf0038ef860f4134e7f26a4e93ef86bd51e437a",
                "vout": 0,
                "scriptSig": {
                    "asm": "30460221009d59926c1fc03f607da4ce4b933c0be4e2b62f0ce4f382c3edbda5a50ec5c4860221008f387a6afeae3739ab8a8c71ab53c6c2988d309d6876f30e96e24b307d141906[ALL] 04ed03525b11f2353b894163ae8468c51e38167971009b7fae62c4945826f1a4f2f3cfa035ced66634dbdce7dee986d5f40107c463a4792efe661e77a1ff3815e4",
                    "hex": "4930460221009d59926c1fc03f607da4ce4b933c0be4e2b62f0ce4f382c3edbda5a50ec5c4860221008f387a6afeae3739ab8a8c71ab53c6c2988d309d6876f30e96e24b307d141906014104ed03525b11f2353b894163ae8468c51e38167971009b7fae62c4945826f1a4f2f3cfa035ced66634dbdce7dee986d5f40107c463a4792efe661e77a1ff3815e4"
                },
                "sequence": 4294967295
            },
            {
                "txid": "deb39be205c99dea9a27443398f74626444fc19bb3e7178ade54f44dcc6d3251",
                "vout": 0,
                "scriptSig": {
                    "asm": "304502204f071efb9947ad1224bff8b8d79bd03a05426320cea9c79d15e96df18db6b9bb022100fd68844bef4972917fcd490833a23334a99656bd18ee4a0c5960074d2286e2cd[ALL] 04ed03525b11f2353b894163ae8468c51e38167971009b7fae62c4945826f1a4f2f3cfa035ced66634dbdce7dee986d5f40107c463a4792efe661e77a1ff3815e4",
                    "hex": "48304502204f071efb9947ad1224bff8b8d79bd03a05426320cea9c79d15e96df18db6b9bb022100fd68844bef4972917fcd490833a23334a99656bd18ee4a0c5960074d2286e2cd014104ed03525b11f2353b894163ae8468c51e38167971009b7fae62c4945826f1a4f2f3cfa035ced66634dbdce7dee986d5f40107c463a4792efe661e77a1ff3815e4"
                },
                "sequence": 4294967295
            },
            {
                "txid": "3507fd56ed387617ff5d15f8be5fad9ad945ae07fd6473470a28965b6393b42f",
                "vout": 0,
                "scriptSig": {
                    "asm": "3045022100d5f017891ea61772bc4810c1561593f865b2501e18620a869a094b01a03fbf42022033f70db7d15956820c7067a160c34860ae3cef5bc40b9e295317998987eac530[ALL] 04ed03525b11f2353b894163ae8468c51e38167971009b7fae62c4945826f1a4f2f3cfa035ced66634dbdce7dee986d5f40107c463a4792efe661e77a1ff3815e4",
                    "hex": "483045022100d5f017891ea61772bc4810c1561593f865b2501e18620a869a094b01a03fbf42022033f70db7d15956820c7067a160c34860ae3cef5bc40b9e295317998987eac530014104ed03525b11f2353b894163ae8468c51e38167971009b7fae62c4945826f1a4f2f3cfa035ced66634dbdce7dee986d5f40107c463a4792efe661e77a1ff3815e4"
                },
                "sequence": 4294967295
            },
            {
                "txid": "0bb27a39a756ab0fac1c4f37b226b5709fef076941df9c149d4c7558c60b2910",
                "vout": 0,
                "scriptSig": {
                    "asm": "304502202251b873beeb80f8c479c418b7f38c2622e2e05bfa74c75079d51601f8689da6022100a6baf97aee2e9f21568049b91b6e56ce7dcabd2b54d584cbf4f4252b6e6d11d0[ALL] 04ed03525b11f2353b894163ae8468c51e38167971009b7fae62c4945826f1a4f2f3cfa035ced66634dbdce7dee986d5f40107c463a4792efe661e77a1ff3815e4",
                    "hex": "48304502202251b873beeb80f8c479c418b7f38c2622e2e05bfa74c75079d51601f8689da6022100a6baf97aee2e9f21568049b91b6e56ce7dcabd2b54d584cbf4f4252b6e6d11d0014104ed03525b11f2353b894163ae8468c51e38167971009b7fae62c4945826f1a4f2f3cfa035ced66634dbdce7dee986d5f40107c463a4792efe661e77a1ff3815e4"
                },
                "sequence": 4294967295
            },
            {
                "txid": "a706c05a731265d40018be2d5f0c03b98c6ce6b9e3e520135a2386d1b5c2c67c",
                "vout": 0,
                "scriptSig": {
                    "asm": "30450221009444a0b1b51a91af457af136e4374a952ab4b27263f47711e87ab44161daa5e30220368f9d37300ad5ff0952e501d2afed273eaf45fe741f4e66ddab062667e8bed9[ALL] 04ed03525b11f2353b894163ae8468c51e38167971009b7fae62c4945826f1a4f2f3cfa035ced66634dbdce7dee986d5f40107c463a4792efe661e77a1ff3815e4",
                    "hex": "4830450221009444a0b1b51a91af457af136e4374a952ab4b27263f47711e87ab44161daa5e30220368f9d37300ad5ff0952e501d2afed273eaf45fe741f4e66ddab062667e8bed9014104ed03525b11f2353b894163ae8468c51e38167971009b7fae62c4945826f1a4f2f3cfa035ced66634dbdce7dee986d5f40107c463a4792efe661e77a1ff3815e4"
                },
                "sequence": 4294967295
            },
            {
                "txid": "e615b8e206606d5043aa5bb31eebba355a87b40d4b1f84494c4319f19d847789",
                "vout": 0,
                "scriptSig": {
                    "asm": "3045022038c8827b084259f88d1ec84932b74b12f876fbce38e5885c3e47295afc21d386022100d247afe9a9cfeb099e84e835ddeffe6c115bea6ace604e58f205962bda93fd2f[ALL] 04ed03525b11f2353b894163ae8468c51e38167971009b7fae62c4945826f1a4f2f3cfa035ced66634dbdce7dee986d5f40107c463a4792efe661e77a1ff3815e4",
                    "hex": "483045022038c8827b084259f88d1ec84932b74b12f876fbce38e5885c3e47295afc21d386022100d247afe9a9cfeb099e84e835ddeffe6c115bea6ace604e58f205962bda93fd2f014104ed03525b11f2353b894163ae8468c51e38167971009b7fae62c4945826f1a4f2f3cfa035ced66634dbdce7dee986d5f40107c463a4792efe661e77a1ff3815e4"
                },
                "sequence": 4294967295
            },
            {
                "txid": "66d911f3c902b1bd235b3bbd06af347365a1c8c46bb27f0bb276e72737bee71e",
                "vout": 0,
                "scriptSig": {
                    "asm": "3046022100d1c2a3bb2addc263dd182814abb297c3173425339b3412e8a557b83563e39d00022100b901e6d9e8e624ff75bad24db03b72ad38496f5d48c4ac9fb423d9f0ef4a0146[ALL] 04ed03525b11f2353b894163ae8468c51e38167971009b7fae62c4945826f1a4f2f3cfa035ced66634dbdce7dee986d5f40107c463a4792efe661e77a1ff3815e4",
                    "hex": "493046022100d1c2a3bb2addc263dd182814abb297c3173425339b3412e8a557b83563e39d00022100b901e6d9e8e624ff75bad24db03b72ad38496f5d48c4ac9fb423d9f0ef4a0146014104ed03525b11f2353b894163ae8468c51e38167971009b7fae62c4945826f1a4f2f3cfa035ced66634dbdce7dee986d5f40107c463a4792efe661e77a1ff3815e4"
                },
                "sequence": 4294967295
            },
            {
                "txid": "ee349f11be566c89c279ed8960474a963b74f977ff3291a22db9b924f7bcebc5",
                "vout": 0,
                "scriptSig": {
                    "asm": "304402204e532f542c9cca197a3abd6516a5ca2c4a9e8982c782e7c100ad9e38446bff15022058f6372ed818b443dc60c8c814ad2ba8452239262f9eef893401b7e7ef28637a[ALL] 04ed03525b11f2353b894163ae8468c51e38167971009b7fae62c4945826f1a4f2f3cfa035ced66634dbdce7dee986d5f40107c463a4792efe661e77a1ff3815e4",
                    "hex": "47304402204e532f542c9cca197a3abd6516a5ca2c4a9e8982c782e7c100ad9e38446bff15022058f6372ed818b443dc60c8c814ad2ba8452239262f9eef893401b7e7ef28637a014104ed03525b11f2353b894163ae8468c51e38167971009b7fae62c4945826f1a4f2f3cfa035ced66634dbdce7dee986d5f40107c463a4792efe661e77a1ff3815e4"
                },
                "sequence": 4294967295
            }
        ],
        "vout": [
            {
                "value": 500.00000000,
                "n": 0,
                "scriptPubKey": {
                    "asm": "OP_DUP OP_HASH160 d2b8371edcd7041e3c26b82c8c6ed51e6bb61777 OP_EQUALVERIFY OP_CHECKSIG",
                    "hex": "76a914d2b8371edcd7041e3c26b82c8c6ed51e6bb6177788ac",
                    "reqSigs": 1,
                    "type": "pubkeyhash",
                    "addresses": [
                        "1LDBankfbBAqMBBX65xgxgKQqgeuR2DD6U"
                    ]
                }
            },
            {
                "value": 250.99990000,
                "n": 1,
                "scriptPubKey": {
                    "asm": "OP_DUP OP_HASH160 d2d24b64687b50114908e8fd39a0c004ca333bb0 OP_EQUALVERIFY OP_CHECKSIG",
                    "hex": "76a914d2d24b64687b50114908e8fd39a0c004ca333bb088ac",
                    "reqSigs": 1,
                    "type": "pubkeyhash",
                    "addresses": [
                        "1LDipoYVWA7UsFzWrrcXUGLnsXWuYaJB9f"
                    ]
                }
            }
        ],
        "blockhash": "000000000000000656b559295bc412bc365f20db0f63358944e6ec82b8b06ae3",
        "confirmations": 22388,
        "time": 1383885867,
        "blocktime": 1383885867
    },
    "error": null,
    "id": "1"
}