{
    "result": {
        "hex": "01000000010000000000000000000000000000000000000000000000000000000000000000ffffffff0804ba760e1a028a06ffffffff01e1ba162a01000000434104d2347a4b6de5a2467dc511fe795bb9f50687dbcd8425e4a2db41425ef8b7138be6b0136ef6b84c0b80ff8917c1e3f3396db73ebbd7c2f0a27732e4654fd9fc16ac00000000",
        "txid": "b5ea36cba90d9f179f974200cfba19a134c8ff839112180f13ad4893df3fb9fb",
        "hash": "b5ea36cba90d9f179f974200cfba19a134c8ff839112180f13ad4893df3fb9fb",
        "size": 135,
        "vsize": 135,
        "version": 1,
        "locktime": 0,
        "vin": [
            {
                "coinbase": "04ba760e1a028a06",
                "sequence": 4294967295
            }
        ],
        "vout": [
            {
                "value": 50.01100001,
                "n": 0,
                "scriptPubKey": {
                    "asm": "04d2347a4b6de5a2467dc511fe795bb9f50687dbcd8425e4a2db41425ef8b7138be6b0136ef6b84c0b80ff8917c1e3f3396db73ebbd7c2f0a27732e4654fd9fc16 OP_CHECKSIG",
                    "hex": "4104d2347a4b6de5a2467dc511fe795bb9f50687dbcd8425e4a2db41425ef8b7138be6b0136ef6b84c0b80ff8917c1e3f3396db73ebbd7c2f0a27732e4654fd9fc16ac",
                    "reqSigs": 1,
                    "type": "pubkey",
                    "addresses": [
                        "1HqZG8ansXt98aQ8x7kjcbHEqLhUrt1PSK"
                    ]
                }
            }
        ],
        "blockhash": "0000000000000521b00aea89122bb6551e2e016d9defd66856dc0d335de257ce",
        "confirmations": 20169,
        "time": 1325781006,
        "blocktime": 1325781006
    },
    "error": null,
    "id": "1"
}