{
    "result": {
        "hex": "010000000190c746de11461a5dcd7d9204f8b3892a40749aa43c65ee79347bca75c2b4bb7c000000006b483045022100980ad35796945ed0a2d8a3f2b9cf220e105554d1bd73320a7425d7787ca9573c0220304efec0201b1a21607ed99b06abdbc88d1720564c3fa9439c88d79f4181c30b012103764ef0414ded5f138159ea1ad0f46254a7d3b76ded67fe8ae0aa6a46b3b2e5bfffffffff014aaba858000000001976a91494b45476bc1359edca2ec0e3825141c487099fec88ac00000000",
        "txid": "180e3cd07544389029c9a465f91f49164274bb02959505d66673d19573e90fe0",
        "hash": "180e3cd07544389029c9a465f91f49164274bb02959505d66673d19573e90fe0",
        "size": 192,
        "vsize": 192,
        "version": 1,
        "locktime": 0,
        "vin": [
            {
                "txid": "7cbbb4c275ca7b3479ee653ca49a74402a89b3f804927dcd5d1a4611de46c790",
                "vout": 0,
                "scriptSig": {
                    "asm": "3045022100980ad35796945ed0a2d8a3f2b9cf220e105554d1bd73320a7425d7787ca9573c0220304efec0201b1a21607ed99b06abdbc88d1720564c3fa9439c88d79f4181c30b[ALL] 03764ef0414ded5f138159ea1ad0f46254a7d3b76ded67fe8ae0aa6a46b3b2e5bf",
                    "hex": "483045022100980ad35796945ed0a2d8a3f2b9cf220e105554d1bd73320a7425d7787ca9573c0220304efec0201b1a21607ed99b06abdbc88d1720564c3fa9439c88d79f4181c30b012103764ef0414ded5f138159ea1ad0f46254a7d3b76ded67fe8ae0aa6a46b3b2e5bf"
                },
                "sequence": 4294967295
            }
        ],
        "vout": [
            {
                "value": 14.87448906,
                "n": 0,
                "scriptPubKey": {
                    "asm": "OP_DUP OP_HASH160 94b45476bc1359edca2ec0e3825141c487099fec OP_EQUALVERIFY OP_CHECKSIG",
                    "hex": "76a91494b45476bc1359edca2ec0e3825141c487099fec88ac",
                    "reqSigs": 1,
                    "type": "pubkeyhash",
                    "addresses": [
                        "1EZH2wCsqfpKDNSSTBBYXiV4ERdqLyxn7e"
                    ]
                }
            }
        ],
        "blockhash": "0000000000000001e3880d818d871596484168371159bd033a809cf445f9a2ac",
        "confirmations": 1065,
        "time": 1390828714,
        "blocktime": 1390828714
    },
    "error": null,
    "id": "1"
}